:020000020000FC
:1000000012C011C010C00FC00EC00DC00CC00BC07C
:100010000AC063C208C007C006C005C004C003C050
:1000200002C001C000C01FE51DBF14E01EBF1FECD1
:1000300017BB13E014BB1EEF11BB10E318BB10E09D
:1000400015BB10E012BB12E013BF11E019BF14E1A1
:100050001093600014E11093610014E110936200AA
:1000600014E11093630014E11093640014E1109301
:1000700065005527442455246624E199FECF1127B5
:100080001FBB15E01EBBE09A7DB2789491D290D24E
:1000900014E11093600014E11093610014E11093D7
:1000A000620014E11093630014E11093640018E1FE
:1000B0001093650077D214E11093600014E110935F
:1000C000610014E11093620014E11093630018E1E1
:1000D0001093640019E11093650064D214E1109349
:1000E000600014E11093610014E11093620018E1C4
:1000F0001093630019E1109364001AE110936500F6
:1001000051D214E11093600014E11093610018E1E2
:100110001093620019E1109363001AE110936400D8
:100120001BE1109365003ED214E11093600018E1CA
:100130001093610019E1109362001AE110936300BB
:100140001BE1109364001CE1109365002BD218E1B1
:100150001093600019E1109361001AE1109362009E
:100160001BE1109363001CE1109364001DE11093E8
:1001700065001ED21DD21CD21BD21AD219D200C0C9
:10018000F9D19B9B58D09C9B15C09D9B65D0809BB3
:1001900047D0B3D09A9B38D0F3CFECD19B9B4BD0B8
:1001A0009C9B1DC09D9B58D0809B3AD066D09A9B4B
:1001B00031D0F3CFD8D19C99E3CFDCD19C99EDCF4E
:1001C000D9D19C99EACFE9D19C99E7CFF1D19C99FB
:1001D000E4CF44245524662490D0EAD1D1CFC3D1B2
:1001E0009C99DBCFC7D19C99CBCFC4D19C99C8CF68
:1001F000D4D19C99C5CFDCD19C99C2CF442455243D
:1002000066243BD0D5D1C9CF44245524662475D06B
:10021000CFD108954424552466242FD0C9D1089500
:10022000A9D180990895ADD1809BFDCF439411272A
:10023000570C611E08959ED19B990895A9D115E090
:100240009D9B81C04A9459D011275718610A99D1B2
:100250009B9BFDCF8FD108958DD19D99089598D105
:1002600015E09B9B70C0439448D01127570C611E2A
:1002700088D19D9BFDCF7ED10895362C252C05D1AC
:10028000109166001030D1F010916600109360005C
:100290001091670010936100109168002AE0120F1E
:1002A00010936200109169001093630010916A002E
:1002B0001093640018E110936500089514E1109301
:1002C00060001093610010916700103021F01091D0
:1002D000670010936100109168002AE0120F1093DC
:1002E0006200109169001093630010916A001093EE
:1002F000640018E11093650008953324242CD3D0B2
:1003000014E10027209168002013109168001093D9
:100310006000142D1A3028F414E1002720916900A0
:100320002013109169001093610010916A001093DE
:10033000620012E21093630010E21093640013E273
:1003400010936500089534D19B9908959D9908955F
:100350001A95C9F714E1109360001EE11093610033
:100360001FE11093620010E21093630011E21093FA
:10037000640014E110936500FDD09C99FDCF08D175
:100380009C9BFDCF0AD13324272C8DD014E11093F0
:10039000600010936100109168002AE0120F109322
:1003A0006200109169001093630010916A0010932D
:1003B000640018E1109365009B9B2DD09D9B35D068
:1003C0009C99E0CFD7D09C9BFDCFE7D0F894E199E2
:1003D000FECF11271FBB15E01EBB7DBAE29AE19A42
:1003E000DCD0789414E1109360001AE1109361005E
:1003F00014E21093620015E21093630019E1109368
:10040000640014E110936500C8D09C99FDCF44248A
:1004100055246624B5CEAED09C9BFDCF7A947A94B9
:100420007A947A947A94B9D00895A4D09D9BFDCF04
:1004300015E0710EB2D00895E8E4F4E030E0E40F86
:10044000F31FC895402D08955F419BD3C5D6DE4369
:10045000DFD77F61BBF3E5F6FE63FFF70080100294
:100460001C9ED6CD411E8F88D8D7980CCF5D38E022
:10047000C198C298C29847FDC39A47FFC398440FDA
:10048000C29A3A95B9F7C298089517E2112E10E171
:10049000012E18D01093660013E0112E18EE012ED5
:1004A00011D010936700112414E6012E0BD0109385
:1004B000680011241AE0012E05D020926A001093E2
:1004C000690008951127311438F011F4201420F038
:1004D000201831081395F7CF08953F930F92EF93AB
:1004E000FF933FB73F935395563009F455274091FA
:1004F0006500503091F040916400513071F04091AE
:100500006300523051F040916200533031F040911D
:100510006100543011F0409160008EDFA8DF9698A2
:1005200050FD969A979851FD979AC09852FDC09A9F
:10053000C19A0000C1983F913FBFFF91EF910F908A
:100540003F911895C8EFD0E02197F1F70895C1EFDA
:10055000D1E02197F1F7089515E02FEF2A95F1F7F3
:100560001A95D9F708951FE02FEF2A95F1F71A95FC
:10057000D9F7089516E42FEF2A95F1F71A95D9F7D0
:10058000089514E62FEF2A95F1F71A95D9F70895F3
:1005900014E6DDDF1A95E9F7089518ECD8DF1A950F
:1005A000E9F70895ACEBB2E0D2DF1197E9F70895CF
:0C05B000A8EEB3E0CCDF1197E9F7089546
:00000001FF
